{
  "contractName": "Election",
  "abi": [
    {
      "inputs": [],
      "stateMutability": "payable",
      "type": "constructor",
      "payable": true
    },
    {
      "anonymous": false,
      "inputs": [
        {
          "indexed": true,
          "internalType": "uint256",
          "name": "_candidateId",
          "type": "uint256"
        }
      ],
      "name": "votedEvent",
      "type": "event"
    },
    {
      "inputs": [
        {
          "internalType": "address",
          "name": "",
          "type": "address"
        }
      ],
      "name": "addressmap",
      "outputs": [
        {
          "internalType": "uint256",
          "name": "",
          "type": "uint256"
        }
      ],
      "stateMutability": "view",
      "type": "function",
      "constant": true
    },
    {
      "inputs": [],
      "name": "approved_candidates_count",
      "outputs": [
        {
          "internalType": "uint256",
          "name": "",
          "type": "uint256"
        }
      ],
      "stateMutability": "view",
      "type": "function",
      "constant": true
    },
    {
      "inputs": [
        {
          "internalType": "uint256",
          "name": "",
          "type": "uint256"
        }
      ],
      "name": "candidates",
      "outputs": [
        {
          "internalType": "uint256",
          "name": "id",
          "type": "uint256"
        },
        {
          "internalType": "address",
          "name": "candidate_address",
          "type": "address"
        },
        {
          "internalType": "string",
          "name": "name",
          "type": "string"
        },
        {
          "internalType": "uint256",
          "name": "voteCount",
          "type": "uint256"
        },
        {
          "internalType": "bool",
          "name": "approved",
          "type": "bool"
        },
        {
          "internalType": "string",
          "name": "image_addr",
          "type": "string"
        }
      ],
      "stateMutability": "view",
      "type": "function",
      "constant": true
    },
    {
      "inputs": [],
      "name": "candidatesCount",
      "outputs": [
        {
          "internalType": "uint256",
          "name": "",
          "type": "uint256"
        }
      ],
      "stateMutability": "view",
      "type": "function",
      "constant": true
    },
    {
      "inputs": [],
      "name": "contract_owner",
      "outputs": [
        {
          "internalType": "address",
          "name": "",
          "type": "address"
        }
      ],
      "stateMutability": "view",
      "type": "function",
      "constant": true
    },
    {
      "inputs": [],
      "name": "endTime",
      "outputs": [
        {
          "internalType": "uint256",
          "name": "",
          "type": "uint256"
        }
      ],
      "stateMutability": "view",
      "type": "function",
      "constant": true
    },
    {
      "inputs": [],
      "name": "gift_claimed",
      "outputs": [
        {
          "internalType": "bool",
          "name": "",
          "type": "bool"
        }
      ],
      "stateMutability": "view",
      "type": "function",
      "constant": true
    },
    {
      "inputs": [],
      "name": "startTime",
      "outputs": [
        {
          "internalType": "uint256",
          "name": "",
          "type": "uint256"
        }
      ],
      "stateMutability": "view",
      "type": "function",
      "constant": true
    },
    {
      "inputs": [
        {
          "internalType": "address",
          "name": "",
          "type": "address"
        }
      ],
      "name": "voters",
      "outputs": [
        {
          "internalType": "bool",
          "name": "",
          "type": "bool"
        }
      ],
      "stateMutability": "view",
      "type": "function",
      "constant": true
    },
    {
      "inputs": [],
      "name": "votingProcess",
      "outputs": [
        {
          "internalType": "bool",
          "name": "",
          "type": "bool"
        }
      ],
      "stateMutability": "view",
      "type": "function",
      "constant": true
    },
    {
      "inputs": [
        {
          "internalType": "string",
          "name": "_name",
          "type": "string"
        },
        {
          "internalType": "string",
          "name": "_imgAddr",
          "type": "string"
        }
      ],
      "name": "registerCandidate",
      "outputs": [],
      "stateMutability": "nonpayable",
      "type": "function"
    },
    {
      "inputs": [
        {
          "internalType": "uint256",
          "name": "_candidateId",
          "type": "uint256"
        }
      ],
      "name": "approve",
      "outputs": [],
      "stateMutability": "nonpayable",
      "type": "function"
    },
    {
      "inputs": [
        {
          "internalType": "uint256",
          "name": "_voteMinutes",
          "type": "uint256"
        }
      ],
      "name": "startVote",
      "outputs": [],
      "stateMutability": "nonpayable",
      "type": "function"
    },
    {
      "inputs": [],
      "name": "stopVote",
      "outputs": [],
      "stateMutability": "nonpayable",
      "type": "function"
    },
    {
      "inputs": [
        {
          "internalType": "uint256",
          "name": "_candidateId",
          "type": "uint256"
        }
      ],
      "name": "vote",
      "outputs": [],
      "stateMutability": "nonpayable",
      "type": "function"
    },
    {
      "inputs": [
        {
          "internalType": "uint256",
          "name": "_candidateId",
          "type": "uint256"
        }
      ],
      "name": "claim_gift",
      "outputs": [],
      "stateMutability": "payable",
      "type": "function",
      "payable": true
    }
  ],
  "bytecode": "0x6080604052336000806101000a81548173ffffffffffffffffffffffffffffffffffffffff021916908373ffffffffffffffffffffffffffffffffffffffff1602179055506000600c60006101000a81548160ff021916908315150217905550346001819055506120a6806100756000396000f3fe6080604052600436106100f35760003560e01c80636ca20c4d1161008a578063b759f95411610059578063b759f9541461031d578063d466beeb14610346578063e5dff55b14610371578063ebf3ca791461039c576100f3565b80636ca20c4d1461024d57806378e97925146102785780637d7186d5146102a3578063a3ec138d146102e0576100f3565b80633197cbb6116100c65780633197cbb61461018c5780633477ee2e146101b7578063384f58eb146101f95780633f22052414610224576100f3565b80630121b93f146100f85780630dbce4dd146101215780632495c0ce1461014a5780632d35a8a214610161575b600080fd5b34801561010457600080fd5b5061011f600480360381019061011a91906115d7565b6103b8565b005b34801561012d57600080fd5b506101486004803603810190610143919061155f565b610606565b005b34801561015657600080fd5b5061015f610800565b005b34801561016d57600080fd5b50610176610c1d565b6040516101839190611a4a565b60405180910390f35b34801561019857600080fd5b506101a1610c23565b6040516101ae9190611a4a565b60405180910390f35b3480156101c357600080fd5b506101de60048036038101906101d991906115d7565b610c29565b6040516101f096959493929190611a65565b60405180910390f35b34801561020557600080fd5b5061020e610da2565b60405161021b9190611854565b60405180910390f35b34801561023057600080fd5b5061024b600480360381019061024691906115d7565b610dc6565b005b34801561025957600080fd5b50610262610f85565b60405161026f9190611a4a565b60405180910390f35b34801561028457600080fd5b5061028d610f8b565b60405161029a9190611a4a565b60405180910390f35b3480156102af57600080fd5b506102ca60048036038101906102c59190611532565b610f91565b6040516102d79190611a4a565b60405180910390f35b3480156102ec57600080fd5b5061030760048036038101906103029190611532565b610fa9565b604051610314919061186f565b60405180910390f35b34801561032957600080fd5b50610344600480360381019061033f91906115d7565b610fc9565b005b34801561035257600080fd5b5061035b61112e565b604051610368919061186f565b60405180910390f35b34801561037d57600080fd5b50610386611141565b604051610393919061186f565b60405180910390f35b6103b660048036038101906103b191906115d7565b611154565b005b42600b54111580156103cc5750600a544211155b61040b576040517f08c379a0000000000000000000000000000000000000000000000000000000008152600401610402906119ca565b60405180910390fd5b600360003373ffffffffffffffffffffffffffffffffffffffff1673ffffffffffffffffffffffffffffffffffffffff16815260200190815260200160002060009054906101000a900460ff1615610498576040517f08c379a000000000000000000000000000000000000000000000000000000000815260040161048f906118ca565b60405180910390fd5b6000811180156104aa57506009548111155b80156104dd5750600115156007600083815260200190815260200160002060040160009054906101000a900460ff161515145b6104e657600080fd5b6001600360003373ffffffffffffffffffffffffffffffffffffffff1673ffffffffffffffffffffffffffffffffffffffff16815260200190815260200160002060006101000a81548160ff0219169083151502179055506005600081548092919061055190611ce3565b91905055503360046000600554815260200190815260200160002060006101000a81548173ffffffffffffffffffffffffffffffffffffffff021916908373ffffffffffffffffffffffffffffffffffffffff1602179055506007600082815260200190815260200160002060030160008154809291906105d190611ce3565b9190505550807ffff3c900d938d21d0990d786e819f29b8d05c1ef587b462b939609625b684b1660405160405180910390a250565b6000600860003373ffffffffffffffffffffffffffffffffffffffff1673ffffffffffffffffffffffffffffffffffffffff1681526020019081526020016000205414610688576040517f08c379a000000000000000000000000000000000000000000000000000000000815260040161067f9061198a565b60405180910390fd5b6009600081548092919061069b90611ce3565b91905055506040518060c0016040528060095481526020013373ffffffffffffffffffffffffffffffffffffffff16815260200183815260200160008152602001600015158152602001828152506007600060095481526020019081526020016000206000820151816000015560208201518160010160006101000a81548173ffffffffffffffffffffffffffffffffffffffff021916908373ffffffffffffffffffffffffffffffffffffffff160217905550604082015181600201908051906020019061076b9291906113f5565b506060820151816003015560808201518160040160006101000a81548160ff02191690831515021790555060a08201518160050190805190602001906107b29291906113f5565b50905050600954600860003373ffffffffffffffffffffffffffffffffffffffff1673ffffffffffffffffffffffffffffffffffffffff168152602001908152602001600020819055505050565b3373ffffffffffffffffffffffffffffffffffffffff1660008054906101000a900473ffffffffffffffffffffffffffffffffffffffff1673ffffffffffffffffffffffffffffffffffffffff161461088e576040517f08c379a0000000000000000000000000000000000000000000000000000000008152600401610885906119ea565b60405180910390fd5b600a5442101580156108ac5750600c60009054906101000a900460ff165b6108eb576040517f08c379a00000000000000000000000000000000000000000000000000000000081526004016108e290611a0a565b60405180910390fd5b6000600c60006101000a81548160ff0219169083151502179055506000600260006101000a81548160ff0219169083151502179055506000600b819055506000600a819055506000600190505b6009548111610b00576000600860006007600085815260200190815260200160002060010160009054906101000a900473ffffffffffffffffffffffffffffffffffffffff1673ffffffffffffffffffffffffffffffffffffffff1673ffffffffffffffffffffffffffffffffffffffff168152602001908152602001600020819055506000600760008381526020019081526020016000206000018190555060006007600083815260200190815260200160002060010160006101000a81548173ffffffffffffffffffffffffffffffffffffffff021916908373ffffffffffffffffffffffffffffffffffffffff16021790555060405180602001604052806000815250600760008381526020019081526020016000206002019080519060200190610a679291906113f5565b506000600760008381526020019081526020016000206003018190555060006007600083815260200190815260200160002060040160006101000a81548160ff02191690831515021790555060405180602001604052806000815250600760008381526020019081526020016000206005019080519060200190610aec9291906113f5565b508080610af890611ce3565b915050610938565b506000600190505b6005548111610c02576000600360006004600085815260200190815260200160002060009054906101000a900473ffffffffffffffffffffffffffffffffffffffff1673ffffffffffffffffffffffffffffffffffffffff1673ffffffffffffffffffffffffffffffffffffffff16815260200190815260200160002060006101000a81548160ff02191690831515021790555060006004600083815260200190815260200160002060006101000a81548173ffffffffffffffffffffffffffffffffffffffff021916908373ffffffffffffffffffffffffffffffffffffffff1602179055508080610bfa90611ce3565b915050610b08565b50600060098190555060006006819055506000600581905550565b60095481565b600a5481565b60076020528060005260406000206000915090508060000154908060010160009054906101000a900473ffffffffffffffffffffffffffffffffffffffff1690806002018054610c7890611c80565b80601f0160208091040260200160405190810160405280929190818152602001828054610ca490611c80565b8015610cf15780601f10610cc657610100808354040283529160200191610cf1565b820191906000526020600020905b815481529060010190602001808311610cd457829003601f168201915b5050505050908060030154908060040160009054906101000a900460ff1690806005018054610d1f90611c80565b80601f0160208091040260200160405190810160405280929190818152602001828054610d4b90611c80565b8015610d985780601f10610d6d57610100808354040283529160200191610d98565b820191906000526020600020905b815481529060010190602001808311610d7b57829003601f168201915b5050505050905086565b60008054906101000a900473ffffffffffffffffffffffffffffffffffffffff1681565b3373ffffffffffffffffffffffffffffffffffffffff1660008054906101000a900473ffffffffffffffffffffffffffffffffffffffff1673ffffffffffffffffffffffffffffffffffffffff1614610e54576040517f08c379a0000000000000000000000000000000000000000000000000000000008152600401610e4b906119ea565b60405180910390fd5b60026009541015610e9a576040517f08c379a0000000000000000000000000000000000000000000000000000000008152600401610e91906118aa565b60405180910390fd5b60026006541015610ee0576040517f08c379a0000000000000000000000000000000000000000000000000000000008152600401610ed79061196a565b60405180910390fd5b60001515600c60009054906101000a900460ff161515148015610f035750600081115b610f42576040517f08c379a0000000000000000000000000000000000000000000000000000000008152600401610f3990611a2a565b60405180910390fd5b42600b81905550603c81610f569190611b9c565b42610f619190611b46565b600a819055506001600c60006101000a81548160ff02191690831515021790555050565b60065481565b600b5481565b60086020528060005260406000206000915090505481565b60036020528060005260406000206000915054906101000a900460ff1681565b3373ffffffffffffffffffffffffffffffffffffffff1660008054906101000a900473ffffffffffffffffffffffffffffffffffffffff1673ffffffffffffffffffffffffffffffffffffffff1614611057576040517f08c379a000000000000000000000000000000000000000000000000000000000815260040161104e906119ea565b60405180910390fd5b60016007600083815260200190815260200160002060000154101580156110a55750600015156007600083815260200190815260200160002060040160009054906101000a900460ff161515145b6110e4576040517f08c379a00000000000000000000000000000000000000000000000000000000081526004016110db9061188a565b60405180910390fd5b60016007600083815260200190815260200160002060040160006101000a81548160ff0219169083151502179055506006600081548092919061112690611ce3565b919050555050565b600260009054906101000a900460ff1681565b600c60009054906101000a900460ff1681565b6001471015611198576040517f08c379a000000000000000000000000000000000000000000000000000000000815260040161118f9061192a565b60405180910390fd5b6007600082815260200190815260200160002060040160009054906101000a900460ff166111fb576040517f08c379a00000000000000000000000000000000000000000000000000000000081526004016111f2906119aa565b60405180910390fd5b600a5442101580156112195750600c60009054906101000a900460ff165b611258576040517f08c379a000000000000000000000000000000000000000000000000000000000815260040161124f9061190a565b60405180910390fd5b600260009054906101000a900460ff16156112a8576040517f08c379a000000000000000000000000000000000000000000000000000000000815260040161129f9061194a565b60405180910390fd5b3373ffffffffffffffffffffffffffffffffffffffff166007600083815260200190815260200160002060010160009054906101000a900473ffffffffffffffffffffffffffffffffffffffff1673ffffffffffffffffffffffffffffffffffffffff161461134c576040517f08c379a0000000000000000000000000000000000000000000000000000000008152600401611343906118ea565b60405180910390fd5b60006007600083815260200190815260200160002060010160009054906101000a900473ffffffffffffffffffffffffffffffffffffffff1690508073ffffffffffffffffffffffffffffffffffffffff166108fc670de0b6b3a76400009081150290604051600060405180830381858888f193505050501580156113d5573d6000803e3d6000fd5b506001600260006101000a81548160ff0219169083151502179055505050565b82805461140190611c80565b90600052602060002090601f016020900481019282611423576000855561146a565b82601f1061143c57805160ff191683800117855561146a565b8280016001018555821561146a579182015b8281111561146957825182559160200191906001019061144e565b5b509050611477919061147b565b5090565b5b8082111561149457600081600090555060010161147c565b5090565b60006114ab6114a684611af9565b611ad4565b9050828152602081018484840111156114c7576114c6611dbe565b5b6114d2848285611c3e565b509392505050565b6000813590506114e981612042565b92915050565b600082601f83011261150457611503611db9565b5b8135611514848260208601611498565b91505092915050565b60008135905061152c81612059565b92915050565b60006020828403121561154857611547611dc8565b5b6000611556848285016114da565b91505092915050565b6000806040838503121561157657611575611dc8565b5b600083013567ffffffffffffffff81111561159457611593611dc3565b5b6115a0858286016114ef565b925050602083013567ffffffffffffffff8111156115c1576115c0611dc3565b5b6115cd858286016114ef565b9150509250929050565b6000602082840312156115ed576115ec611dc8565b5b60006115fb8482850161151d565b91505092915050565b61160d81611bf6565b82525050565b61161c81611c08565b82525050565b600061162d82611b2a565b6116378185611b35565b9350611647818560208601611c4d565b61165081611dcd565b840191505092915050565b6000611668601083611b35565b915061167382611dde565b602082019050919050565b600061168b601683611b35565b915061169682611e07565b602082019050919050565b60006116ae601e83611b35565b91506116b982611e30565b602082019050919050565b60006116d1601d83611b35565b91506116dc82611e59565b602082019050919050565b60006116f4601283611b35565b91506116ff82611e82565b602082019050919050565b6000611717601483611b35565b915061172282611eab565b602082019050919050565b600061173a601483611b35565b915061174582611ed4565b602082019050919050565b600061175d601f83611b35565b915061176882611efd565b602082019050919050565b6000611780601283611b35565b915061178b82611f26565b602082019050919050565b60006117a3601483611b35565b91506117ae82611f4f565b602082019050919050565b60006117c6601183611b35565b91506117d182611f78565b602082019050919050565b60006117e9601083611b35565b91506117f482611fa1565b602082019050919050565b600061180c603583611b35565b915061181782611fca565b604082019050919050565b600061182f601283611b35565b915061183a82612019565b602082019050919050565b61184e81611c34565b82525050565b60006020820190506118696000830184611604565b92915050565b60006020820190506118846000830184611613565b92915050565b600060208201905081810360008301526118a38161165b565b9050919050565b600060208201905081810360008301526118c38161167e565b9050919050565b600060208201905081810360008301526118e3816116a1565b9050919050565b60006020820190508181036000830152611903816116c4565b9050919050565b60006020820190508181036000830152611923816116e7565b9050919050565b600060208201905081810360008301526119438161170a565b9050919050565b600060208201905081810360008301526119638161172d565b9050919050565b6000602082019050818103600083015261198381611750565b9050919050565b600060208201905081810360008301526119a381611773565b9050919050565b600060208201905081810360008301526119c381611796565b9050919050565b600060208201905081810360008301526119e3816117b9565b9050919050565b60006020820190508181036000830152611a03816117dc565b9050919050565b60006020820190508181036000830152611a23816117ff565b9050919050565b60006020820190508181036000830152611a4381611822565b9050919050565b6000602082019050611a5f6000830184611845565b92915050565b600060c082019050611a7a6000830189611845565b611a876020830188611604565b8181036040830152611a998187611622565b9050611aa86060830186611845565b611ab56080830185611613565b81810360a0830152611ac78184611622565b9050979650505050505050565b6000611ade611aef565b9050611aea8282611cb2565b919050565b6000604051905090565b600067ffffffffffffffff821115611b1457611b13611d8a565b5b611b1d82611dcd565b9050602081019050919050565b600081519050919050565b600082825260208201905092915050565b6000611b5182611c34565b9150611b5c83611c34565b9250827fffffffffffffffffffffffffffffffffffffffffffffffffffffffffffffffff03821115611b9157611b90611d2c565b5b828201905092915050565b6000611ba782611c34565b9150611bb283611c34565b9250817fffffffffffffffffffffffffffffffffffffffffffffffffffffffffffffffff0483118215151615611beb57611bea611d2c565b5b828202905092915050565b6000611c0182611c14565b9050919050565b60008115159050919050565b600073ffffffffffffffffffffffffffffffffffffffff82169050919050565b6000819050919050565b82818337600083830152505050565b60005b83811015611c6b578082015181840152602081019050611c50565b83811115611c7a576000848401525b50505050565b60006002820490506001821680611c9857607f821691505b60208210811415611cac57611cab611d5b565b5b50919050565b611cbb82611dcd565b810181811067ffffffffffffffff82111715611cda57611cd9611d8a565b5b80604052505050565b6000611cee82611c34565b91507fffffffffffffffffffffffffffffffffffffffffffffffffffffffffffffffff821415611d2157611d20611d2c565b5b600182019050919050565b7f4e487b7100000000000000000000000000000000000000000000000000000000600052601160045260246000fd5b7f4e487b7100000000000000000000000000000000000000000000000000000000600052602260045260246000fd5b7f4e487b7100000000000000000000000000000000000000000000000000000000600052604160045260246000fd5b600080fd5b600080fd5b600080fd5b600080fd5b6000601f19601f8301169050919050565b7f416c726561647920617070726f76656400000000000000000000000000000000600082015250565b7f4c657373207468616e20322063616e6469646174657300000000000000000000600082015250565b7f5573657220616c72656164792063617374656420746865697220766f74650000600082015250565b7f476966742063616e20626520636c61696d65642062792077696e6e6572000000600082015250565b7f566f74696e67206e6f7420737461727465640000000000000000000000000000600082015250565b7f496e73756666696369656e742062616c616e6365000000000000000000000000600082015250565b7f416c7265616479204769667420436c61696d6564000000000000000000000000600082015250565b7f4c657373207468616e203220617070726f7665642063616e6469646174657300600082015250565b7f416c726561647920526567697374657265640000000000000000000000000000600082015250565b7f55736572206e6f7420612043616e646964617465000000000000000000000000600082015250565b7f566f74696e672054696d65204572726f72000000000000000000000000000000600082015250565b7f41646d696e205065726d697373696f6e00000000000000000000000000000000600082015250565b7f43757272656e742074696d652073686f756c642062652067726561746572207460008201527f68616e20456c656374696f6e20456e642074696d650000000000000000000000602082015250565b7f566f74696e6720696e2050726f67726573730000000000000000000000000000600082015250565b61204b81611bf6565b811461205657600080fd5b50565b61206281611c34565b811461206d57600080fd5b5056fea26469706673582212207701f1a5b47bf7f54c8cbca2ca4f6160d823a8f6bb5edeb0463b327bbfda6ea264736f6c63430008060033",
  "immutableReferences": {},
  "source": "// SPDX-License-Identifier: MIT\npragma solidity 0.8.6;\n\ncontract Election {\n    // Model a Candidate\n    struct Candidate {\n        uint id;\n        address candidate_address;\n        string name;\n        uint voteCount;\n        bool approved;\n        string image_addr;\n\n    }\n    address public contract_owner;\n    uint256 wei_received;\n    bool public gift_claimed;\n\n\n    // Store accounts that have voted\n    mapping(address => bool) public voters;\n    mapping(uint => address) private votersmap;\n    uint private votersCount;\n    uint public approved_candidates_count;\n\n    // Fetch Candidate\n    mapping(uint => Candidate) public candidates;\n\n    mapping(address => uint) public addressmap;\n    // Store Candidates Count\n    uint public candidatesCount;\n    uint public endTime;\n    uint public startTime;\n    bool public votingProcess;\n\n    // voted event\n    event votedEvent (\n        uint indexed _candidateId\n    );\n    modifier onlyAdmin(){\n        require(contract_owner == msg.sender, \"Admin Permission\");\n        _;\n    }\n    modifier votingPeriod(){\n        require (startTime <= block.timestamp && block.timestamp <= endTime, \"Voting Time Error\");\n        _;\n    }\n    modifier sufficientBalance() {\n        require (address(this).balance >=1, \"Insufficient balance\");\n        _;\n    }\n    constructor () payable {\n        contract_owner =  msg.sender;\n        votingProcess = false;\n        wei_received = msg.value;\n    }\n\n    function registerCandidate (string memory _name, string memory _imgAddr) public {\n        // require that they haven't registered before\n        require(addressmap[msg.sender] == 0, \"Already Registered\");\n        candidatesCount ++;\n        candidates[candidatesCount] = Candidate(candidatesCount,msg.sender, _name, 0, false, _imgAddr);\n        addressmap[msg.sender] = candidatesCount;\n    }\n\n    function approve (uint _candidateId) public onlyAdmin{\n        require (candidates[_candidateId].id >= 1 && candidates[_candidateId].approved == false, \"Already approved\");\n        candidates[_candidateId].approved = true;\n        approved_candidates_count++;\n    }\n\n    function startVote(uint _voteMinutes) public onlyAdmin {\n        require(candidatesCount >=2, \"Less than 2 candidates\");\n        require(approved_candidates_count >=2, \"Less than 2 approved candidates\");\n        require(votingProcess == false && _voteMinutes > 0, \"Voting in Progress\");\n        startTime = block.timestamp;\n        endTime = block.timestamp + _voteMinutes*60;\n        votingProcess = true;\n    }\n\n    function stopVote() public onlyAdmin {\n        require(block.timestamp >= endTime && votingProcess,\"Current time should be greater than Election End time\");\n        votingProcess = false;\n        gift_claimed = false;\n        startTime = 0;\n        endTime = 0;\n        for (uint i=1; i<= candidatesCount ; i++) {\n            addressmap[candidates[i].candidate_address] = 0;\n            candidates[i].id = 0;\n            candidates[i].candidate_address = address(0);\n            candidates[i].name = '';\n            candidates[i].voteCount = 0;\n            candidates[i].approved = false;\n            candidates[i].image_addr = '';\n        }\n        for (uint i=1; i<= votersCount ; i++) {\n            voters[votersmap[i]] = false;\n            votersmap[i] = address(0);\n        }\n        candidatesCount = 0;\n        approved_candidates_count = 0;\n        votersCount = 0;\n    }\n\n    function vote (uint _candidateId) public votingPeriod{\n        // require that they haven't voted before\n        require(!voters[msg.sender],\"User already casted their vote\");\n\n        // require a valid candidate\n        require(_candidateId > 0 && _candidateId <= candidatesCount && candidates[_candidateId].approved == true);\n\n        // record that voter has voted\n        voters[msg.sender] = true;\n        votersCount++;\n        votersmap[votersCount] = msg.sender;\n        // update candidate vote Count\n        candidates[_candidateId].voteCount ++;\n        // trigger voted event\n        emit votedEvent(_candidateId);\n    }\n\n    function claim_gift(uint _candidateId) public payable sufficientBalance {\n        require(candidates[_candidateId].approved, \"User not a Candidate\");\n        require(block.timestamp >= endTime && votingProcess, \"Voting not started\");\n        require(!gift_claimed, \"Already Gift Claimed\");\n        require(candidates[_candidateId].candidate_address == msg.sender, \"Gift can be claimed by winner\");\n        address payable candidate_addr = payable(candidates[_candidateId].candidate_address);\n        candidate_addr.transfer(1 ether);\n        gift_claimed = true;\n    }\n}\n",
  "sourcePath": "/Users/paras/Documents/blockchain-based-authentication/contracts/Election.sol",
  "compiler": {
    "name": "solc",
    "version": "0.8.6+commit.11564f7e.Emscripten.clang"
  },
  "schemaVersion": "3.4.7",
  "updatedAt": "2022-07-11T06:54:14.873Z",
  "networkType": "ethereum",
  "devdoc": {
    "kind": "dev",
    "methods": {},
    "version": 1
  },
  "userdoc": {
    "kind": "user",
    "methods": {},
    "version": 1
  }
}